{
  "address": "0x1BA93249Ac3B109E271E20fE5ca7A7C6dBdd6e2A",
  "abi": [
    {
      "inputs": [],
      "stateMutability": "nonpayable",
      "type": "constructor"
    },
    {
      "inputs": [],
      "name": "ERC721EnumerableForbiddenBatchMint",
      "type": "error"
    },
    {
      "inputs": [
        {
          "internalType": "address",
          "name": "sender",
          "type": "address"
        },
        {
          "internalType": "uint256",
          "name": "tokenId",
          "type": "uint256"
        },
        {
          "internalType": "address",
          "name": "owner",
          "type": "address"
        }
      ],
      "name": "ERC721IncorrectOwner",
      "type": "error"
    },
    {
      "inputs": [
        {
          "internalType": "address",
          "name": "operator",
          "type": "address"
        },
        {
          "internalType": "uint256",
          "name": "tokenId",
          "type": "uint256"
        }
      ],
      "name": "ERC721InsufficientApproval",
      "type": "error"
    },
    {
      "inputs": [
        {
          "internalType": "address",
          "name": "approver",
          "type": "address"
        }
      ],
      "name": "ERC721InvalidApprover",
      "type": "error"
    },
    {
      "inputs": [
        {
          "internalType": "address",
          "name": "operator",
          "type": "address"
        }
      ],
      "name": "ERC721InvalidOperator",
      "type": "error"
    },
    {
      "inputs": [
        {
          "internalType": "address",
          "name": "owner",
          "type": "address"
        }
      ],
      "name": "ERC721InvalidOwner",
      "type": "error"
    },
    {
      "inputs": [
        {
          "internalType": "address",
          "name": "receiver",
          "type": "address"
        }
      ],
      "name": "ERC721InvalidReceiver",
      "type": "error"
    },
    {
      "inputs": [
        {
          "internalType": "address",
          "name": "sender",
          "type": "address"
        }
      ],
      "name": "ERC721InvalidSender",
      "type": "error"
    },
    {
      "inputs": [
        {
          "internalType": "uint256",
          "name": "tokenId",
          "type": "uint256"
        }
      ],
      "name": "ERC721NonexistentToken",
      "type": "error"
    },
    {
      "inputs": [
        {
          "internalType": "address",
          "name": "owner",
          "type": "address"
        },
        {
          "internalType": "uint256",
          "name": "index",
          "type": "uint256"
        }
      ],
      "name": "ERC721OutOfBoundsIndex",
      "type": "error"
    },
    {
      "anonymous": false,
      "inputs": [
        {
          "indexed": true,
          "internalType": "address",
          "name": "owner",
          "type": "address"
        },
        {
          "indexed": true,
          "internalType": "address",
          "name": "approved",
          "type": "address"
        },
        {
          "indexed": true,
          "internalType": "uint256",
          "name": "tokenId",
          "type": "uint256"
        }
      ],
      "name": "Approval",
      "type": "event"
    },
    {
      "anonymous": false,
      "inputs": [
        {
          "indexed": true,
          "internalType": "address",
          "name": "owner",
          "type": "address"
        },
        {
          "indexed": true,
          "internalType": "address",
          "name": "operator",
          "type": "address"
        },
        {
          "indexed": false,
          "internalType": "bool",
          "name": "approved",
          "type": "bool"
        }
      ],
      "name": "ApprovalForAll",
      "type": "event"
    },
    {
      "anonymous": false,
      "inputs": [
        {
          "indexed": true,
          "internalType": "address",
          "name": "from",
          "type": "address"
        },
        {
          "indexed": true,
          "internalType": "address",
          "name": "to",
          "type": "address"
        },
        {
          "indexed": true,
          "internalType": "uint256",
          "name": "tokenId",
          "type": "uint256"
        }
      ],
      "name": "Transfer",
      "type": "event"
    },
    {
      "inputs": [
        {
          "internalType": "address",
          "name": "to",
          "type": "address"
        },
        {
          "internalType": "uint256",
          "name": "tokenId",
          "type": "uint256"
        }
      ],
      "name": "approve",
      "outputs": [],
      "stateMutability": "nonpayable",
      "type": "function"
    },
    {
      "inputs": [
        {
          "internalType": "address",
          "name": "owner",
          "type": "address"
        }
      ],
      "name": "balanceOf",
      "outputs": [
        {
          "internalType": "uint256",
          "name": "",
          "type": "uint256"
        }
      ],
      "stateMutability": "view",
      "type": "function"
    },
    {
      "inputs": [
        {
          "internalType": "uint256",
          "name": "tokenId",
          "type": "uint256"
        }
      ],
      "name": "getApproved",
      "outputs": [
        {
          "internalType": "address",
          "name": "",
          "type": "address"
        }
      ],
      "stateMutability": "view",
      "type": "function"
    },
    {
      "inputs": [
        {
          "internalType": "address",
          "name": "owner",
          "type": "address"
        },
        {
          "internalType": "address",
          "name": "operator",
          "type": "address"
        }
      ],
      "name": "isApprovedForAll",
      "outputs": [
        {
          "internalType": "bool",
          "name": "",
          "type": "bool"
        }
      ],
      "stateMutability": "view",
      "type": "function"
    },
    {
      "inputs": [],
      "name": "maxSupply",
      "outputs": [
        {
          "internalType": "uint256",
          "name": "",
          "type": "uint256"
        }
      ],
      "stateMutability": "view",
      "type": "function"
    },
    {
      "inputs": [
        {
          "internalType": "string",
          "name": "name",
          "type": "string"
        },
        {
          "internalType": "string",
          "name": "dateEnd",
          "type": "string"
        },
        {
          "internalType": "uint8",
          "name": "level",
          "type": "uint8"
        }
      ],
      "name": "mint",
      "outputs": [],
      "stateMutability": "nonpayable",
      "type": "function"
    },
    {
      "inputs": [],
      "name": "name",
      "outputs": [
        {
          "internalType": "string",
          "name": "",
          "type": "string"
        }
      ],
      "stateMutability": "view",
      "type": "function"
    },
    {
      "inputs": [
        {
          "internalType": "uint256",
          "name": "tokenId",
          "type": "uint256"
        }
      ],
      "name": "ownerOf",
      "outputs": [
        {
          "internalType": "address",
          "name": "",
          "type": "address"
        }
      ],
      "stateMutability": "view",
      "type": "function"
    },
    {
      "inputs": [
        {
          "internalType": "address",
          "name": "from",
          "type": "address"
        },
        {
          "internalType": "address",
          "name": "to",
          "type": "address"
        },
        {
          "internalType": "uint256",
          "name": "tokenId",
          "type": "uint256"
        }
      ],
      "name": "safeTransferFrom",
      "outputs": [],
      "stateMutability": "nonpayable",
      "type": "function"
    },
    {
      "inputs": [
        {
          "internalType": "address",
          "name": "from",
          "type": "address"
        },
        {
          "internalType": "address",
          "name": "to",
          "type": "address"
        },
        {
          "internalType": "uint256",
          "name": "tokenId",
          "type": "uint256"
        },
        {
          "internalType": "bytes",
          "name": "data",
          "type": "bytes"
        }
      ],
      "name": "safeTransferFrom",
      "outputs": [],
      "stateMutability": "nonpayable",
      "type": "function"
    },
    {
      "inputs": [
        {
          "internalType": "address",
          "name": "operator",
          "type": "address"
        },
        {
          "internalType": "bool",
          "name": "approved",
          "type": "bool"
        }
      ],
      "name": "setApprovalForAll",
      "outputs": [],
      "stateMutability": "nonpayable",
      "type": "function"
    },
    {
      "inputs": [
        {
          "internalType": "string",
          "name": "domain",
          "type": "string"
        }
      ],
      "name": "setReverseENS",
      "outputs": [],
      "stateMutability": "nonpayable",
      "type": "function"
    },
    {
      "inputs": [
        {
          "internalType": "bytes4",
          "name": "interfaceId",
          "type": "bytes4"
        }
      ],
      "name": "supportsInterface",
      "outputs": [
        {
          "internalType": "bool",
          "name": "",
          "type": "bool"
        }
      ],
      "stateMutability": "view",
      "type": "function"
    },
    {
      "inputs": [],
      "name": "symbol",
      "outputs": [
        {
          "internalType": "string",
          "name": "",
          "type": "string"
        }
      ],
      "stateMutability": "view",
      "type": "function"
    },
    {
      "inputs": [
        {
          "internalType": "uint256",
          "name": "index",
          "type": "uint256"
        }
      ],
      "name": "tokenByIndex",
      "outputs": [
        {
          "internalType": "uint256",
          "name": "",
          "type": "uint256"
        }
      ],
      "stateMutability": "view",
      "type": "function"
    },
    {
      "inputs": [
        {
          "internalType": "address",
          "name": "owner",
          "type": "address"
        },
        {
          "internalType": "uint256",
          "name": "index",
          "type": "uint256"
        }
      ],
      "name": "tokenOfOwnerByIndex",
      "outputs": [
        {
          "internalType": "uint256",
          "name": "",
          "type": "uint256"
        }
      ],
      "stateMutability": "view",
      "type": "function"
    },
    {
      "inputs": [
        {
          "internalType": "uint256",
          "name": "tokenId",
          "type": "uint256"
        }
      ],
      "name": "tokenURI",
      "outputs": [
        {
          "internalType": "string",
          "name": "",
          "type": "string"
        }
      ],
      "stateMutability": "view",
      "type": "function"
    },
    {
      "inputs": [],
      "name": "totalSupply",
      "outputs": [
        {
          "internalType": "uint256",
          "name": "",
          "type": "uint256"
        }
      ],
      "stateMutability": "view",
      "type": "function"
    },
    {
      "inputs": [
        {
          "internalType": "address",
          "name": "from",
          "type": "address"
        },
        {
          "internalType": "address",
          "name": "to",
          "type": "address"
        },
        {
          "internalType": "uint256",
          "name": "tokenId",
          "type": "uint256"
        }
      ],
      "name": "transferFrom",
      "outputs": [],
      "stateMutability": "nonpayable",
      "type": "function"
    }
  ],
  "transactionHash": "0xf776966973365ad1b778755cc52ae0f39c07eae3dbe414cae81097302fa578da",
  "args": [],
  "numDeployments": 1,
  "solcInputHash": "da286def99dddb04162a646440b3ac4a",
  "bytecode": "0x60806040523480156200001157600080fd5b50336040518060400160405280600e81526020016d43726970746f4176656e7475726160901b81525060405180604001604052806006815260200165435241564c4160d01b81525081600090816200006a9190620001c2565b506001620000798282620001c2565b50506000600a5550600d80546001600160a01b03191673a0a1abcdae1a2a4a2ef8e9113ff0e02dd81dc0c6908117909155604051630f41a04d60e11b81526001600160a01b0383166004820152631e83409a906024016020604051808303816000875af1158015620000ef573d6000803e3d6000fd5b505050506040513d601f19601f820116820180604052508101906200011591906200028e565b5050620002a8565b634e487b7160e01b600052604160045260246000fd5b600181811c908216806200014857607f821691505b6020821081036200016957634e487b7160e01b600052602260045260246000fd5b50919050565b601f821115620001bd57600081815260208120601f850160051c81016020861015620001985750805b601f850160051c820191505b81811015620001b957828155600101620001a4565b5050505b505050565b81516001600160401b03811115620001de57620001de6200011d565b620001f681620001ef845462000133565b846200016f565b602080601f8311600181146200022e5760008415620002155750858301515b600019600386901b1c1916600185901b178555620001b9565b600085815260208120601f198616915b828110156200025f578886015182559484019460019091019084016200023e565b50858210156200027e5787850151600019600388901b60f8161c191681555b5050505050600190811b01905550565b600060208284031215620002a157600080fd5b5051919050565b611e7780620002b86000396000f3fe608060405234801561001057600080fd5b50600436106101215760003560e01c80634cc68b6f116100ad578063a22cb46511610071578063a22cb46514610255578063b88d4fde14610268578063c87b56dd1461027b578063d5abeb011461028e578063e985e9c51461029857600080fd5b80634cc68b6f146102015780634f6ccce7146102145780636352211e1461022757806370a082311461023a57806395d89b411461024d57600080fd5b8063095ea7b3116100f4578063095ea7b3146101a357806318160ddd146101b657806323b872dd146101c85780632f745c59146101db57806342842e0e146101ee57600080fd5b806301ffc9a71461012657806306fdde031461014e578063081812fc1461016357806308aa46bf1461018e575b600080fd5b61013961013436600461155c565b6102ab565b60405190151581526020015b60405180910390f35b6101566102bc565b60405161014591906115d0565b6101766101713660046115e3565b61034e565b6040516001600160a01b039091168152602001610145565b6101a161019c3660046116a8565b610377565b005b6101a16101b1366004611742565b6105b6565b6008545b604051908152602001610145565b6101a16101d636600461176c565b6105c5565b6101ba6101e9366004611742565b610650565b6101a16101fc36600461176c565b6106b5565b6101a161020f3660046117a8565b6106d5565b6101ba6102223660046115e3565b610762565b6101766102353660046115e3565b6107bb565b6101ba6102483660046117dd565b6107c6565b61015661080e565b6101a16102633660046117f8565b61081d565b6101a1610276366004611834565b610828565b6101566102893660046115e3565b61083f565b6101ba620f424081565b6101396102a63660046118b0565b610a70565b60006102b682610a9e565b92915050565b6060600080546102cb906118e3565b80601f01602080910402602001604051908101604052809291908181526020018280546102f7906118e3565b80156103445780601f1061031957610100808354040283529160200191610344565b820191906000526020600020905b81548152906001019060200180831161032757829003601f168201915b5050505050905090565b600061035982610ac3565b506000828152600460205260409020546001600160a01b03166102b6565b620f4240600a54106103ec5760405162461bcd60e51b815260206004820152603360248201527f4e6f206d6f72652043726970746f4176656e74757261204c4154414d2063657260448201527274696669636174657320617661696c61626c6560681b60648201526084015b60405180910390fd5b60008351116104365760405162461bcd60e51b81526020600482015260166024820152754e616d65206d757374206e6f7420626520656d70747960501b60448201526064016103e3565b60008251116104875760405162461bcd60e51b815260206004820152601a60248201527f4461746520656e64206d757374206e6f7420626520656d70747900000000000060448201526064016103e3565b60008160ff16116104da5760405162461bcd60e51b815260206004820152601f60248201527f4c6576656c206d7573742062652067726561746572207468616e207a65726f0060448201526064016103e3565b604080516080810182528481526020808201859052338284015260ff84166060830152600a546000908152600c909152919091208151829190819061051f908261196b565b5060208201516001820190610534908261196b565b506040828101516002909201805460609094015160ff16600160a01b026001600160a81b03199094166001600160a01b0390931692909217929092179055600a80546000908152600b60205291909120805460ff191660011790555461059b903390610afc565b600a80549060006105ab83611a41565b919050555050505050565b6105c1828233610b16565b5050565b6001600160a01b0382166105ef57604051633250574960e11b8152600060048201526024016103e3565b60006105fc838333610b23565b9050836001600160a01b0316816001600160a01b03161461064a576040516364283d7b60e01b81526001600160a01b03808616600483015260248201849052821660448201526064016103e3565b50505050565b600061065b836107c6565b821061068c5760405163295f44f760e21b81526001600160a01b0384166004820152602481018390526044016103e3565b506001600160a01b03919091166000908152600660209081526040808320938352929052205490565b6106d083838360405180602001604052806000815250610828565b505050565b600d54604051637a806d6b60e01b81526001600160a01b0390911690637a806d6b9061071f9030903390738fade66b79cc9f707ab26799354482eb93a5b7dd908790600401611a5a565b6020604051808303816000875af115801561073e573d6000803e3d6000fd5b505050506040513d601f19601f820116820180604052508101906105c19190611a98565b600061076d60085490565b82106107965760405163295f44f760e21b815260006004820152602481018390526044016103e3565b600882815481106107a9576107a9611ab1565b90600052602060002001549050919050565b60006102b682610ac3565b60006001600160a01b0382166107f2576040516322718ad960e21b8152600060048201526024016103e3565b506001600160a01b031660009081526003602052604090205490565b6060600180546102cb906118e3565b6105c1338383610b38565b6108338484846105c5565b61064a84848484610bd7565b6000818152600b602052604090205460609060ff166108a05760405162461bcd60e51b815260206004820152601760248201527f546f6b656e20494420646f6573206e6f7420657869737400000000000000000060448201526064016103e3565b6000828152600c60205260408082208151608081019092528054829082906108c7906118e3565b80601f01602080910402602001604051908101604052809291908181526020018280546108f3906118e3565b80156109405780601f1061091557610100808354040283529160200191610940565b820191906000526020600020905b81548152906001019060200180831161092357829003601f168201915b50505050508152602001600182018054610959906118e3565b80601f0160208091040260200160405190810160405280929190818152602001828054610985906118e3565b80156109d25780601f106109a7576101008083540402835291602001916109d2565b820191906000526020600020905b8154815290600101906020018083116109b557829003601f168201915b5050509183525050600291909101546001600160a01b0381166020830152600160a01b900460ff1660409091015290506000610a45610a1085610d00565b835160208086015160608701516040808901519051610a3196959401611ae3565b604051602081830303815290604052610e01565b905080604051602001610a589190611cdb565b60405160208183030381529060405292505050919050565b6001600160a01b03918216600090815260056020908152604080832093909416825291909152205460ff1690565b60006001600160e01b0319821663780e9d6360e01b14806102b657506102b682610f54565b6000818152600260205260408120546001600160a01b0316806102b657604051637e27328960e01b8152600481018490526024016103e3565b6105c1828260405180602001604052806000815250610fa4565b6106d08383836001610fbb565b6000610b308484846110c1565b949350505050565b6001600160a01b038216610b6a57604051630b61174360e31b81526001600160a01b03831660048201526024016103e3565b6001600160a01b03838116600081815260056020908152604080832094871680845294825291829020805460ff191686151590811790915591519182527f17307eab39ab6107e8899845ad3d59bd9653f200f220920489ca2b5937696c31910160405180910390a3505050565b6001600160a01b0383163b1561064a57604051630a85bd0160e11b81526001600160a01b0384169063150b7a0290610c19903390889087908790600401611d20565b6020604051808303816000875af1925050508015610c54575060408051601f3d908101601f19168201909252610c5191810190611d53565b60015b610cbd573d808015610c82576040519150601f19603f3d011682016040523d82523d6000602084013e610c87565b606091505b508051600003610cb557604051633250574960e11b81526001600160a01b03851660048201526024016103e3565b805181602001fd5b6001600160e01b03198116630a85bd0160e11b14610cf957604051633250574960e11b81526001600160a01b03851660048201526024016103e3565b5050505050565b606081600003610d275750506040805180820190915260018152600360fc1b602082015290565b8160005b8115610d515780610d3b81611a41565b9150610d4a9050600a83611d86565b9150610d2b565b60008167ffffffffffffffff811115610d6c57610d6c6115fc565b6040519080825280601f01601f191660200182016040528015610d96576020820181803683370190505b5090505b8415610b3057610dab600183611d9a565b9150610db8600a86611dad565b610dc3906030611dc1565b60f81b818381518110610dd857610dd8611ab1565b60200101906001600160f81b031916908160001a905350610dfa600a86611d86565b9450610d9a565b60608151600003610e2057505060408051602081019091526000815290565b6000604051806060016040528060408152602001611e026040913990506000600384516002610e4f9190611dc1565b610e599190611d86565b610e64906004611dd4565b67ffffffffffffffff811115610e7c57610e7c6115fc565b6040519080825280601f01601f191660200182016040528015610ea6576020820181803683370190505b509050600182016020820185865187015b80821015610f12576003820191508151603f8160121c168501518453600184019350603f81600c1c168501518453600184019350603f8160061c168501518453600184019350603f8116850151845350600183019250610eb7565b5050600386510660018114610f2e5760028114610f4157610f49565b603d6001830353603d6002830353610f49565b603d60018303535b509195945050505050565b60006001600160e01b031982166380ac58cd60e01b1480610f8557506001600160e01b03198216635b5e139f60e01b145b806102b657506301ffc9a760e01b6001600160e01b03198316146102b6565b610fae838361118e565b6106d06000848484610bd7565b8080610fcf57506001600160a01b03821615155b15611091576000610fdf84610ac3565b90506001600160a01b0383161580159061100b5750826001600160a01b0316816001600160a01b031614155b801561101e575061101c8184610a70565b155b156110475760405163a9fbf51f60e01b81526001600160a01b03841660048201526024016103e3565b811561108f5783856001600160a01b0316826001600160a01b03167f8c5be1e5ebec7d5bd14f71427d1e84f3dd0314c0f7b2291e5b200ac8c7c3b92560405160405180910390a45b505b5050600090815260046020526040902080546001600160a01b0319166001600160a01b0392909216919091179055565b6000806110cf8585856111f3565b90506001600160a01b03811661112c5761112784600880546000838152600960205260408120829055600182018355919091527ff3f7a9fe364faab93b216da50a3214154f22a0a2b415b23a84c8169e8b636ee30155565b61114f565b846001600160a01b0316816001600160a01b03161461114f5761114f81856112ec565b6001600160a01b03851661116b576111668461137d565b610b30565b846001600160a01b0316816001600160a01b031614610b3057610b30858561142c565b6001600160a01b0382166111b857604051633250574960e11b8152600060048201526024016103e3565b60006111c683836000610b23565b90506001600160a01b038116156106d0576040516339e3563760e11b8152600060048201526024016103e3565b6000828152600260205260408120546001600160a01b03908116908316156112205761122081848661147c565b6001600160a01b0381161561125e5761123d600085600080610fbb565b6001600160a01b038116600090815260036020526040902080546000190190555b6001600160a01b0385161561128d576001600160a01b0385166000908152600360205260409020805460010190555b60008481526002602052604080822080546001600160a01b0319166001600160a01b0389811691821790925591518793918516917fddf252ad1be2c89b69c2b068fc378daa952ba7f163c4a11628f55a4df523b3ef91a4949350505050565b60006112f7836107c6565b60008381526007602052604090205490915080821461134a576001600160a01b03841660009081526006602090815260408083208584528252808320548484528184208190558352600790915290208190555b5060009182526007602090815260408084208490556001600160a01b039094168352600681528383209183525290812055565b60085460009061138f90600190611d9a565b600083815260096020526040812054600880549394509092849081106113b7576113b7611ab1565b9060005260206000200154905080600883815481106113d8576113d8611ab1565b600091825260208083209091019290925582815260099091526040808220849055858252812055600880548061141057611410611deb565b6001900381819060005260206000200160009055905550505050565b60006001611439846107c6565b6114439190611d9a565b6001600160a01b039093166000908152600660209081526040808320868452825280832085905593825260079052919091209190915550565b6114878383836114e0565b6106d0576001600160a01b0383166114b557604051637e27328960e01b8152600481018290526024016103e3565b60405163177e802f60e01b81526001600160a01b0383166004820152602481018290526044016103e3565b60006001600160a01b03831615801590610b305750826001600160a01b0316846001600160a01b0316148061151a575061151a8484610a70565b80610b305750506000908152600460205260409020546001600160a01b03908116911614919050565b6001600160e01b03198116811461155957600080fd5b50565b60006020828403121561156e57600080fd5b813561157981611543565b9392505050565b60005b8381101561159b578181015183820152602001611583565b50506000910152565b600081518084526115bc816020860160208601611580565b601f01601f19169290920160200192915050565b60208152600061157960208301846115a4565b6000602082840312156115f557600080fd5b5035919050565b634e487b7160e01b600052604160045260246000fd5b600067ffffffffffffffff8084111561162d5761162d6115fc565b604051601f8501601f19908116603f01168101908282118183101715611655576116556115fc565b8160405280935085815286868601111561166e57600080fd5b858560208301376000602087830101525050509392505050565b600082601f83011261169957600080fd5b61157983833560208501611612565b6000806000606084860312156116bd57600080fd5b833567ffffffffffffffff808211156116d557600080fd5b6116e187838801611688565b945060208601359150808211156116f757600080fd5b5061170486828701611688565b925050604084013560ff8116811461171b57600080fd5b809150509250925092565b80356001600160a01b038116811461173d57600080fd5b919050565b6000806040838503121561175557600080fd5b61175e83611726565b946020939093013593505050565b60008060006060848603121561178157600080fd5b61178a84611726565b925061179860208501611726565b9150604084013590509250925092565b6000602082840312156117ba57600080fd5b813567ffffffffffffffff8111156117d157600080fd5b610b3084828501611688565b6000602082840312156117ef57600080fd5b61157982611726565b6000806040838503121561180b57600080fd5b61181483611726565b91506020830135801515811461182957600080fd5b809150509250929050565b6000806000806080858703121561184a57600080fd5b61185385611726565b935061186160208601611726565b925060408501359150606085013567ffffffffffffffff81111561188457600080fd5b8501601f8101871361189557600080fd5b6118a487823560208401611612565b91505092959194509250565b600080604083850312156118c357600080fd5b6118cc83611726565b91506118da60208401611726565b90509250929050565b600181811c908216806118f757607f821691505b60208210810361191757634e487b7160e01b600052602260045260246000fd5b50919050565b601f8211156106d057600081815260208120601f850160051c810160208610156119445750805b601f850160051c820191505b8181101561196357828155600101611950565b505050505050565b815167ffffffffffffffff811115611985576119856115fc565b6119998161199384546118e3565b8461191d565b602080601f8311600181146119ce57600084156119b65750858301515b600019600386901b1c1916600185901b178555611963565b600085815260208120601f198616915b828110156119fd578886015182559484019460019091019084016119de565b5085821015611a1b5787850151600019600388901b60f8161c191681555b5050505050600190811b01905550565b634e487b7160e01b600052601160045260246000fd5b600060018201611a5357611a53611a2b565b5060010190565b6001600160a01b038581168252848116602083015283166040820152608060608201819052600090611a8e908301846115a4565b9695505050505050565b600060208284031215611aaa57600080fd5b5051919050565b634e487b7160e01b600052603260045260246000fd5b60008151611ad9818560208601611580565b9290920192915050565b7f7b20226e616d65223a202243726970746f204176656e74757261204c4154414d81526d204365727469666963617465202360901b602082015260008651611b3281602e850160208b01611580565b7f222c20226465736372697074696f6e223a202243727970746f4176656e747572602e918401918201527f61204c4154414d204365727469666963617465732061726520676976656e2074604e8201527f6f2073747564656e7473207468617420656e64206120636f7572736520696e20606e8201527f43727970746f4176656e74757261204c4154414d2077656220706167652e2062608e8201527f7920576f6d656e2042697a222c202261747472696275746573223a205b7b202260ae820152683730b6b291101d101160b91b60ce820152611c56611c3d611c37611c1c60d785018b611ac7565b6e111610113230ba32a2b732111d101160891b8152600f0190565b88611ac7565b6c111610113632bb32b6111d101160991b8152600d0190565b9050611c6e818660f81b6001600160f81b0319169052565b6e1116101139ba3ab232b73a111d101160891b6001820152601081019050611ca7818560601b6bffffffffffffffffffffffff19169052565b7f222c20226279223a2022576f6d656e2042697a227d5d7d0000000000000000006014820152602b01979650505050505050565b7f646174613a6170706c69636174696f6e2f6a736f6e3b6261736536342c000000815260008251611d1381601d850160208701611580565b91909101601d0192915050565b6001600160a01b0385811682528416602082015260408101839052608060608201819052600090611a8e908301846115a4565b600060208284031215611d6557600080fd5b815161157981611543565b634e487b7160e01b600052601260045260246000fd5b600082611d9557611d95611d70565b500490565b818103818111156102b6576102b6611a2b565b600082611dbc57611dbc611d70565b500690565b808201808211156102b6576102b6611a2b565b80820281158282048414176102b6576102b6611a2b565b634e487b7160e01b600052603160045260246000fdfe4142434445464748494a4b4c4d4e4f505152535455565758595a6162636465666768696a6b6c6d6e6f707172737475767778797a303132333435363738392b2fa2646970667358221220a608282ecc1979275de7c8bb9d085a32f886fa123b32ce42d556b3a231e5693164736f6c63430008140033",
  "devdoc": {
    "errors": {
      "ERC721EnumerableForbiddenBatchMint()": [
        {
          "details": "Batch mint is not allowed."
        }
      ],
      "ERC721IncorrectOwner(address,uint256,address)": [
        {
          "details": "Indicates an error related to the ownership over a particular token. Used in transfers.",
          "params": {
            "owner": "Address of the current owner of a token.",
            "sender": "Address whose tokens are being transferred.",
            "tokenId": "Identifier number of a token."
          }
        }
      ],
      "ERC721InsufficientApproval(address,uint256)": [
        {
          "details": "Indicates a failure with the `operator`s approval. Used in transfers.",
          "params": {
            "operator": "Address that may be allowed to operate on tokens without being their owner.",
            "tokenId": "Identifier number of a token."
          }
        }
      ],
      "ERC721InvalidApprover(address)": [
        {
          "details": "Indicates a failure with the `approver` of a token to be approved. Used in approvals.",
          "params": {
            "approver": "Address initiating an approval operation."
          }
        }
      ],
      "ERC721InvalidOperator(address)": [
        {
          "details": "Indicates a failure with the `operator` to be approved. Used in approvals.",
          "params": {
            "operator": "Address that may be allowed to operate on tokens without being their owner."
          }
        }
      ],
      "ERC721InvalidOwner(address)": [
        {
          "details": "Indicates that an address can't be an owner. For example, `address(0)` is a forbidden owner in EIP-20. Used in balance queries.",
          "params": {
            "owner": "Address of the current owner of a token."
          }
        }
      ],
      "ERC721InvalidReceiver(address)": [
        {
          "details": "Indicates a failure with the token `receiver`. Used in transfers.",
          "params": {
            "receiver": "Address to which tokens are being transferred."
          }
        }
      ],
      "ERC721InvalidSender(address)": [
        {
          "details": "Indicates a failure with the token `sender`. Used in transfers.",
          "params": {
            "sender": "Address whose tokens are being transferred."
          }
        }
      ],
      "ERC721NonexistentToken(uint256)": [
        {
          "details": "Indicates a `tokenId` whose `owner` is the zero address.",
          "params": {
            "tokenId": "Identifier number of a token."
          }
        }
      ],
      "ERC721OutOfBoundsIndex(address,uint256)": [
        {
          "details": "An `owner`'s token query was out of bounds for `index`. NOTE: The owner being `address(0)` indicates a global out of bounds index."
        }
      ]
    },
    "events": {
      "Approval(address,address,uint256)": {
        "details": "Emitted when `owner` enables `approved` to manage the `tokenId` token."
      },
      "ApprovalForAll(address,address,bool)": {
        "details": "Emitted when `owner` enables or disables (`approved`) `operator` to manage all of its assets."
      },
      "Transfer(address,address,uint256)": {
        "details": "Emitted when `tokenId` token is transferred from `from` to `to`."
      }
    },
    "kind": "dev",
    "methods": {
      "approve(address,uint256)": {
        "details": "See {IERC721-approve}."
      },
      "balanceOf(address)": {
        "details": "See {IERC721-balanceOf}."
      },
      "getApproved(uint256)": {
        "details": "See {IERC721-getApproved}."
      },
      "isApprovedForAll(address,address)": {
        "details": "See {IERC721-isApprovedForAll}."
      },
      "name()": {
        "details": "See {IERC721Metadata-name}."
      },
      "ownerOf(uint256)": {
        "details": "See {IERC721-ownerOf}."
      },
      "safeTransferFrom(address,address,uint256)": {
        "details": "See {IERC721-safeTransferFrom}."
      },
      "safeTransferFrom(address,address,uint256,bytes)": {
        "details": "See {IERC721-safeTransferFrom}."
      },
      "setApprovalForAll(address,bool)": {
        "details": "See {IERC721-setApprovalForAll}."
      },
      "symbol()": {
        "details": "See {IERC721Metadata-symbol}."
      },
      "tokenByIndex(uint256)": {
        "details": "See {IERC721Enumerable-tokenByIndex}."
      },
      "tokenOfOwnerByIndex(address,uint256)": {
        "details": "See {IERC721Enumerable-tokenOfOwnerByIndex}."
      },
      "tokenURI(uint256)": {
        "details": "See {IERC721Metadata-tokenURI}."
      },
      "totalSupply()": {
        "details": "See {IERC721Enumerable-totalSupply}."
      },
      "transferFrom(address,address,uint256)": {
        "details": "See {IERC721-transferFrom}."
      }
    },
    "version": 1
  },
  "userdoc": {
    "kind": "user",
    "methods": {},
    "version": 1
  },
  "storageLayout": {
    "storage": [
      {
        "astId": 231,
        "contract": "contracts/CriptoAventuraENS.sol:CriptoAventuraENS",
        "label": "_name",
        "offset": 0,
        "slot": "0",
        "type": "t_string_storage"
      },
      {
        "astId": 233,
        "contract": "contracts/CriptoAventuraENS.sol:CriptoAventuraENS",
        "label": "_symbol",
        "offset": 0,
        "slot": "1",
        "type": "t_string_storage"
      },
      {
        "astId": 237,
        "contract": "contracts/CriptoAventuraENS.sol:CriptoAventuraENS",
        "label": "_owners",
        "offset": 0,
        "slot": "2",
        "type": "t_mapping(t_uint256,t_address)"
      },
      {
        "astId": 241,
        "contract": "contracts/CriptoAventuraENS.sol:CriptoAventuraENS",
        "label": "_balances",
        "offset": 0,
        "slot": "3",
        "type": "t_mapping(t_address,t_uint256)"
      },
      {
        "astId": 245,
        "contract": "contracts/CriptoAventuraENS.sol:CriptoAventuraENS",
        "label": "_tokenApprovals",
        "offset": 0,
        "slot": "4",
        "type": "t_mapping(t_uint256,t_address)"
      },
      {
        "astId": 251,
        "contract": "contracts/CriptoAventuraENS.sol:CriptoAventuraENS",
        "label": "_operatorApprovals",
        "offset": 0,
        "slot": "5",
        "type": "t_mapping(t_address,t_mapping(t_address,t_bool))"
      },
      {
        "astId": 1361,
        "contract": "contracts/CriptoAventuraENS.sol:CriptoAventuraENS",
        "label": "_ownedTokens",
        "offset": 0,
        "slot": "6",
        "type": "t_mapping(t_address,t_mapping(t_uint256,t_uint256))"
      },
      {
        "astId": 1365,
        "contract": "contracts/CriptoAventuraENS.sol:CriptoAventuraENS",
        "label": "_ownedTokensIndex",
        "offset": 0,
        "slot": "7",
        "type": "t_mapping(t_uint256,t_uint256)"
      },
      {
        "astId": 1368,
        "contract": "contracts/CriptoAventuraENS.sol:CriptoAventuraENS",
        "label": "_allTokens",
        "offset": 0,
        "slot": "8",
        "type": "t_array(t_uint256)dyn_storage"
      },
      {
        "astId": 1372,
        "contract": "contracts/CriptoAventuraENS.sol:CriptoAventuraENS",
        "label": "_allTokensIndex",
        "offset": 0,
        "slot": "9",
        "type": "t_mapping(t_uint256,t_uint256)"
      },
      {
        "astId": 3327,
        "contract": "contracts/CriptoAventuraENS.sol:CriptoAventuraENS",
        "label": "counter",
        "offset": 0,
        "slot": "10",
        "type": "t_uint256"
      },
      {
        "astId": 3331,
        "contract": "contracts/CriptoAventuraENS.sol:CriptoAventuraENS",
        "label": "_tokenExists",
        "offset": 0,
        "slot": "11",
        "type": "t_mapping(t_uint256,t_bool)"
      },
      {
        "astId": 3345,
        "contract": "contracts/CriptoAventuraENS.sol:CriptoAventuraENS",
        "label": "tokenInfo",
        "offset": 0,
        "slot": "12",
        "type": "t_mapping(t_uint256,t_struct(CertificateInfo)3340_storage)"
      },
      {
        "astId": 3759,
        "contract": "contracts/CriptoAventuraENS.sol:CriptoAventuraENS",
        "label": "reverseRegistrar",
        "offset": 0,
        "slot": "13",
        "type": "t_contract(IReverseRegistrar)61"
      }
    ],
    "types": {
      "t_address": {
        "encoding": "inplace",
        "label": "address",
        "numberOfBytes": "20"
      },
      "t_array(t_uint256)dyn_storage": {
        "base": "t_uint256",
        "encoding": "dynamic_array",
        "label": "uint256[]",
        "numberOfBytes": "32"
      },
      "t_bool": {
        "encoding": "inplace",
        "label": "bool",
        "numberOfBytes": "1"
      },
      "t_contract(IReverseRegistrar)61": {
        "encoding": "inplace",
        "label": "contract IReverseRegistrar",
        "numberOfBytes": "20"
      },
      "t_mapping(t_address,t_bool)": {
        "encoding": "mapping",
        "key": "t_address",
        "label": "mapping(address => bool)",
        "numberOfBytes": "32",
        "value": "t_bool"
      },
      "t_mapping(t_address,t_mapping(t_address,t_bool))": {
        "encoding": "mapping",
        "key": "t_address",
        "label": "mapping(address => mapping(address => bool))",
        "numberOfBytes": "32",
        "value": "t_mapping(t_address,t_bool)"
      },
      "t_mapping(t_address,t_mapping(t_uint256,t_uint256))": {
        "encoding": "mapping",
        "key": "t_address",
        "label": "mapping(address => mapping(uint256 => uint256))",
        "numberOfBytes": "32",
        "value": "t_mapping(t_uint256,t_uint256)"
      },
      "t_mapping(t_address,t_uint256)": {
        "encoding": "mapping",
        "key": "t_address",
        "label": "mapping(address => uint256)",
        "numberOfBytes": "32",
        "value": "t_uint256"
      },
      "t_mapping(t_uint256,t_address)": {
        "encoding": "mapping",
        "key": "t_uint256",
        "label": "mapping(uint256 => address)",
        "numberOfBytes": "32",
        "value": "t_address"
      },
      "t_mapping(t_uint256,t_bool)": {
        "encoding": "mapping",
        "key": "t_uint256",
        "label": "mapping(uint256 => bool)",
        "numberOfBytes": "32",
        "value": "t_bool"
      },
      "t_mapping(t_uint256,t_struct(CertificateInfo)3340_storage)": {
        "encoding": "mapping",
        "key": "t_uint256",
        "label": "mapping(uint256 => struct CriptoAventura.CertificateInfo)",
        "numberOfBytes": "32",
        "value": "t_struct(CertificateInfo)3340_storage"
      },
      "t_mapping(t_uint256,t_uint256)": {
        "encoding": "mapping",
        "key": "t_uint256",
        "label": "mapping(uint256 => uint256)",
        "numberOfBytes": "32",
        "value": "t_uint256"
      },
      "t_string_storage": {
        "encoding": "bytes",
        "label": "string",
        "numberOfBytes": "32"
      },
      "t_struct(CertificateInfo)3340_storage": {
        "encoding": "inplace",
        "label": "struct CriptoAventura.CertificateInfo",
        "members": [
          {
            "astId": 3333,
            "contract": "contracts/CriptoAventuraENS.sol:CriptoAventuraENS",
            "label": "name",
            "offset": 0,
            "slot": "0",
            "type": "t_string_storage"
          },
          {
            "astId": 3335,
            "contract": "contracts/CriptoAventuraENS.sol:CriptoAventuraENS",
            "label": "dateEnd",
            "offset": 0,
            "slot": "1",
            "type": "t_string_storage"
          },
          {
            "astId": 3337,
            "contract": "contracts/CriptoAventuraENS.sol:CriptoAventuraENS",
            "label": "student",
            "offset": 0,
            "slot": "2",
            "type": "t_address"
          },
          {
            "astId": 3339,
            "contract": "contracts/CriptoAventuraENS.sol:CriptoAventuraENS",
            "label": "level",
            "offset": 20,
            "slot": "2",
            "type": "t_uint8"
          }
        ],
        "numberOfBytes": "96"
      },
      "t_uint256": {
        "encoding": "inplace",
        "label": "uint256",
        "numberOfBytes": "32"
      },
      "t_uint8": {
        "encoding": "inplace",
        "label": "uint8",
        "numberOfBytes": "1"
      }
    }
  }
}